:020000040800F2
:100000000008002065160008291400082B140008B9
:1000100000000000000000000000000000000000E0
:100020000000000000000000000000002D14000887
:1000300000000000000000002F1400083114000828
:10004000D5160008D5160008D5160008D5160008E4
:10005000D5160008D5160008D51600083914000872
:1000600000000000D5160008D5160008D5160008B7
:10007000D5160008D516000800000000D5160008A7
:100080000000000000000000000000000000000070
:10009000D51600080000000000000000D51600087A
:1000A00000000000D516000800000000000000005D
:1000B000D5160008D516000800000000000000005A
:1000C00010B5064C2378002B07D1054B002B02D02E
:1000D000044800E000BF0123237010BD0C00002085
:1000E0000000000030170008044B10B5002B03D0AF
:1000F0000349044800E000BF10BDC04600000000F6
:10010000100000203017000802B471464908490069
:10011000095C49008E4402BC7047C0460022430877
:100120008B4274D303098B425FD3030A8B4244D3BF
:10013000030B8B4228D3030C8B420DD3FF22090201
:1001400012BA030C8B4202D31212090265D0030BC0
:100150008B4219D300E0090AC30B8B4201D3CB03B6
:10016000C01A5241830B8B4201D38B03C01A5241F8
:10017000430B8B4201D34B03C01A5241030B8B42FA
:1001800001D30B03C01A5241C30A8B4201D3CB02E5
:10019000C01A5241830A8B4201D38B02C01A5241CA
:1001A000430A8B4201D34B02C01A5241030A8B42CD
:1001B00001D30B02C01A5241CDD2C3098B4201D3E5
:1001C000CB01C01A524183098B4201D38B01C01A63
:1001D000524143098B4201D34B01C01A52410309DA
:1001E0008B4201D30B01C01A5241C3088B4201D389
:1001F000CB00C01A524183088B4201D38B00C01A36
:10020000524143088B4201D34B00C01A5241411A5C
:1002100000D20146524110467047FFE701B5002069
:1002200000F006F802BDC0460029F7D076E7704717
:100230007047C04670B50500FA200D4B8000197854
:10024000FFF76CFF0B4B01001868FFF767FF00F02A
:10025000B7F904000120002C09D1032D07D802387A
:100260002200290000F072F92000034B1D6070BDD0
:100270000000002008000020040000204023084A5D
:1002800010B5116800200B431360FFF7D3FF041E65
:1002900003D101F0BBF8200010BD0124FBE7C046EC
:1002A00000200240034A044B11681B785B1813605E
:1002B0007047C0462800002000000020014B18684D
:1002C0007047C04628000020084B13B504000849B9
:1002D0001868FFF723FF44430194019B002B00D1D2
:1002E00013BD019B013B0193F7E7C04608000020C6
:1002F00040420F0070B504000120002C19D0636D3E
:10030000002B06D122005032A3652000137000F0AC
:10031000B5FF636DDB0604D404222368986810409F
:1003200008D01023626D012013436365002350340D
:10033000237070BD626D5549114002220A43626507
:10034000032299681140524A012902D11D680D42C9
:1003500019D180266568F60569004908B14203D0C5
:10036000802109068D4276D11969890089081961B1
:1003700019690D431D611825D968A943D960D96849
:10038000A5682943D9601168424D29401160616B0D
:100390001568490629431160802299685205114267
:1003A00002D199680A439A60DA683B490A40216998
:1003B000DA60DD68E268022900D10420266B611C46
:1003C00032432A43A569C97FAD032A43E569ED039A
:1003D0002A434D032A4325002C352D786D002A43EE
:1003E0000243C220DA60626AFF30824204D0A56A0A
:1003F000D8682A430243DA60A21CD27F012A06D1C0
:10040000002934D18022D96852020A43DA60E16BB4
:100410001A69012933D12148656C02401A61226CA6
:1004200018692A43A56C2A4302431A611A691143C9
:10043000196107215A6900208A435A615A69A16BE0
:100440000A435A610322A065636D93431A00012396
:10045000134363656DE71969114E890089081961B5
:1004600011683140116011680D43156083E7202148
:10047000606D01436165A16D0A43A265C7E7012173
:100480000A42D6D01A698A431A61D2E7FDFEFFFFFD
:1004900008270140FFFFFFFD1902FEFF03FCFFFFDD
:1004A000FFFFC3FF70B504005034237806000D0031
:1004B0000220012B0BD032680138916820704B0765
:1004C00006D52022716D0A4372650022227070BD2C
:1004D00080201A496E682B68C0028E421BD0966A33
:1004E0005903490B31439162034208D08023144AD7
:1004F0001B0411680A200B431360FFF7E5FE2B680D
:100500009B0305D580230E4ADB0311680B43136060
:1005100000202070DBE7916A5D036D0BA9439162B7
:10052000034204D0064907480A6802400A609B0358
:10053000EED5034A044913680B40E8E701100000B8
:1005400008270140FFFF7FFFFFFFBFFF70B5890154
:10055000002814DA0F23C0B20340083B114A9B085D
:100560009B009B18032210409040FC321500114064
:1005700085408140DC69AC432143D96170BD0325CE
:1005800083082840A840FC352E00074A9B009B1892
:10059000C02286402940814092009C58B4432143A8
:1005A0009950EBE700ED00E000E100E01F23184068
:1005B0001E3B8340014A13607047C04600E100E0E3
:1005C000094A431E012093420DD8C021074A08481A
:1005D0005360036A09061B021B0A0B4303620020D7
:1005E0000723906013607047FFFFFF0010E000E0FA
:1005F00000ED00E0F0B50B6885B002930023029A8D
:10060000DA4001D105B0F0BD01249C40029A22409D
:10061000019200D18BE04A6817009446102297435C
:100620007A1E012A12D803265D00AE408268B243CA
:10063000CE68AE403243826042680125A243140076
:10064000624612092A409A402243426003255E0016
:10065000B5408A68ED43B240C4682C402243C26072
:10066000022F0FD1DA08920007248218176A03922A
:100670000F221C40A400A24097430A69A2401743DE
:10068000039A176202680324154062462240B24072
:1006900080241543624664050560224247D0012547
:1006A0000F27244C626B2A4302351D40AD00AF403A
:1006B0006263214A9C08A400A418A6680022BE43D5
:1006C000A027FF05B84208D01C4F0132B84204D021
:1006D0001B4F0532B84200D1043AAA406746324364
:1006E000A260184A019C1668019DE4433543FF034C
:1006F00001D435002540674615605668019D354395
:10070000BF0301D435002540674655609668019DBA
:100710003543FF0201D43500254067469560D56812
:10072000019E2E43BF0201D425402E00D660013326
:1007300065E7C04600100240000001400004005080
:100740000008005000040140002A01D08161704778
:100750008162FCE70B00426913401B04914319437B
:100760008161704770470000044B10B55A69104210
:1007700002D05861FFF7F6FF10BDC04600040140EB
:100780000C22184B10B5D9680A40082A26D00C2A2A
:1007900006D0042A1AD11B68DB0621D4124810BDEA
:1007A0008A021248120F825C0902D868890F01314F
:1007B000C00304D50E485043FFF7B0FCEFE71B68B9
:1007C000DB0601D50B48F6E70748F4E780205B68B5
:1007D00000021B045B0F01339840E0E70448DEE7AA
:1007E0000448DCE7001002400024F4005817000819
:1007F00000127A0000093D00F0B5050087B000281E
:1008000002D1012007B0F0BD0C23C04CE668E268BD
:100810001E4080235B021A4001920268D2073DD439
:100820002B689B0700D583E02B68DB0628D5002EBC
:1008300000D0DDE023689B0502D5AB69002BE0D03A
:100840006268B3492B6A0A401A4362606168EA69C8
:100850000902090A12060A43626080225B0B013317
:1008600012029A401300E16800200A06A949120FFB
:100870008A5CD340A84A1360FFF7DCFC0028C1D192
:100880002B681B0700D5EAE02B685B0700D50CE15D
:100890006B6A002B00D091E10020B3E7082E04D052
:1008A0000C2E09D1019A002A06D023689B03B7D5E4
:1008B0006B68002BB4D1A4E76A689A4211D1226810
:1008C00013432360FFF7FAFC07008022236892029B
:1008D0001342A5D1FFF7F2FCC01B6428F5D9032011
:1008E00090E7A021C9028A4205D180222168D20264
:1008F0000A432260E3E721688848014021602168BB
:100900000B400593059B864923680B402360002A12
:10091000D8D1FFF7D3FC070080222368920213424C
:1009200000D17DE7FFF7CAFCC01B6428F4D9D6E7E5
:100930002022EB68134203D02168934311432160C6
:10094000042E04D00C2E25D1019A002A22D122682F
:10095000520702D5002B00D153E761682A6971481C
:10096000120201400A430921626022688A4313434C
:100970002360FFF705FFE368664A1B061B0FD35C85
:10098000D840654B18600020FFF754FC002800D1C8
:100990004AE737E7002B19D0092122688A4313431D
:1009A0002360FFF78BFC070004222368134207D063
:1009B00062682B695B491B020A401343636033E79B
:1009C000FFF77CFCC01B0228EED988E701222368D0
:1009D00093432360FFF772FC07000422236813424D
:1009E00000D121E7FFF76AFCC01B0228F5D976E7A2
:1009F000AB69002B20D0802322685B001343236067
:100A0000FFF75CFC070080222368920013420DD0A0
:100A100063683F4A13402A6A134363606268EB6964
:100A200012021B06120A1343636029E7FFF746FC14
:100A3000C01B0228E7D952E723683B4A13402360D2
:100A4000FFF73CFC0700802223689200134200D18C
:100A500016E7FFF733FCC01B0228F4D93FE76A69A9
:100A60000123002A10D0226D13432365FFF726FCD3
:100A700007000222236D134200D005E7FFF71EFC9A
:100A8000C01B0228F5D92AE7226D9A432265FFF799
:100A900015FC07000222236D134200D1F4E6FFF794
:100AA0000DFCC01B0228F5D919E780230021A26B99
:100AB0005B0501911A4204D1A26B1343A363012386
:100AC00001938022194F52003B68134208D08022C4
:100AD000AB68520093422BD1226D134323654CE047
:100AE00080223B68520013433B60FFF7E7FB802303
:100AF0005B00029003933B68039A1342E7D1FFF730
:100B0000DDFB029BC01A6428F5D9E8E6001002401C
:100B1000FF1FFFFF4817000808000020FFFFFEFF2F
:100B2000FFFFFBFFFFE0FFFFFFFEFFFF0070004045
:100B3000002B16D1236D534A13402365236D524A6F
:100B400013402365FFF7BAFB07008022236D920054
:100B500013422AD0FFF7B2FB4C4BC01B9842F4D98A
:100B6000BDE6A021C9008B420BD18023216DDB00A3
:100B70000B432365236D1A432265FFF79FFB070094
:100B80000EE0236D3F4A13402365236D3E4A134018
:100B9000A4E7FFF793FB3D4BC01B984200D99EE6AC
:100BA0008022236D92001342F3D0019B012B00D0D1
:100BB0006EE6A36B364A1340A36369E60C2E43D05E
:100BC000344A022B2ED12368802613402360FFF77E
:100BD00075FB0700B604236833421DD1E96AAB6A8E
:100BE000E2680B432C490A4013432A6B80251343C8
:100BF000E360802322685B0413432360FFF75EFBFE
:100C00000600AD0423682B4200D045E6FFF756FBF3
:100C1000801B0228F6D962E6FFF750FBC01B0228B2
:100C2000D9D95CE62368802513402360FFF746FB93
:100C30000600AD0423682B4200D12DE6FFF73EFBF2
:100C4000801B0228F6D94AE61800012B00D1D9E50D
:100C50008022E368A96A52021A4001208A4200D029
:100C6000D0E5F022E96A92031A408A4200D0C9E531
:100C7000C02000040340286B181A431E9841C0B2DC
:100C8000C0E5C046FFFEFFFFFFFBFFFF881300002B
:100C9000FFFFFFEFFFFFFFFEFFFF02FFF7B5061E9E
:100CA000019101D10120FEBD0122514C019923681F
:100CB00013408B4227D3326893072FD4D30735D400
:100CC0000123226801991A40914200D281E03268E2
:100CD000484C530700D584E0130706D5E268336912
:100CE0004549DB000A401343E360FFF749FDE36831
:100CF000424A1B061B0FD35CD840414B18600020B2
:100D0000FFF798FACFE72368019993430B432360D9
:100D100023681340019A9A42C4D1CCE7F0203549A8
:100D2000CB688343B0680343CB60C7E7314D72683B
:100D30002B68022A19D19B03B4D50321EB688B439E
:100D40001343EB60FFF7BAFA73680700022B19D15F
:100D50000C22EB681340082BB2D0FFF7AFFA294BF7
:100D6000C01B9842F4D903209DE7032A02D19B01BE
:100D7000E3D497E7012A02D15B07DED492E79B0513
:100D8000DBD48FE7032B0BD10C22EB68134093428B
:100D900096D0FFF793FA1B4BC01B9842F4D9E2E7B9
:100DA000012B10D00C22EB68134289D0FFF786FA92
:100DB000144BC01B9842F5D9D5E7FFF77FFA114BCA
:100DC000C01B9842CFD80C22EB681340042BF4D1FF
:100DD00076E722689A43226022681A4200D061E7CF
:100DE00075E7E36808490B40F1680B43E36073E77C
:100DF0000020024000100240FFC7FFFF4817000814
:100E00000800002088130000FFF8FFFF802210B5C3
:100E10000368D205904202D00D4CA0420CD1702440
:100E2000A3434C682343904202D0094A904203D125
:100E3000084A1340CA681343802293430A69134344
:100E400003608B68C3620B6883620123436110BD3A
:100E500000080140FFFCFFFF012230B57325036A43
:100E600093430362036A44688269AA430D682A4374
:100E70000225AB438D68446082614A682B4342631C
:100E8000036230BD1022036A30B593430362036AE4
:100E9000094C4568826914400A68120222432024E2
:100EA000A3431C008B6845601B0182614A68234391
:100EB0008263036230BDC046FF8CFFFF70B5040043
:100EC0000120002C14D0250039352B78DBB2002B03
:100ED00005D1220038321370200000F01DFB0223E0
:100EE00020682B70211DFFF791FF012300202B703C
:100EF00070BD0100022339310B70036807209A6826
:100F00000240062A03D00122186802431A60012316
:100F100000200B707047704770B504000120002C52
:100F200014D0250039352B78DBB2002B05D12200F7
:100F3000383213702000FFF7EEFF022320682B7079
:100F4000211DFFF763FF012300202B7070BD0000FF
:100F5000F8B50500022338350C0029780700180081
:100F6000012925D03E0001213936297033700C2A21
:100F70001AD81000FFF7C8F8071818181D18181805
:100F80002F181818520021003868FFF765FF082253
:100F90003B6899690A4304219A619A698A439A6174
:100FA0009A69E1680A439A6101230020337028702E
:100FB000F8BD21003868FFF765FF80223B68120109
:100FC00099690A439A619A6926490A409A61E268D6
:100FD00099691202E6E773203B6823491A6A0A40BE
:100FE0001A621A6A5F68D9698143206801431F4801
:100FF0001040A2685F601202D96161680243D96340
:101000001A620822D9690A430421DA61DA698A433B
:10101000DA61DA69E1680A43DA61C5E73B681449D5
:101020001A6A14480A401A621A6A5F68D96901404C
:1010300020680002014310481040A2685F6012035C
:10104000D9616168024319641A628022D969120168
:101050000A43DA61DA6903490A40DA61E268D96968
:101060001202D8E7FFFBFFFFFFFEFFFFFFFDFFFFC0
:10107000FFEFFFFFFF8CFFFFFFDFFFFFF0B5040076
:1010800002223834257803001000012D17D01D00EE
:1010900001271B68393527702A709A684548024035
:1010A0009A600A68402A00D16DE014D8102A0BD04B
:1010B00006D8002A08D0012300202B702070F0BD34
:1010C000202A01D0302AF6D17021986888436939E6
:1010D0000A4302433DE0602A3DD017D8502AEAD1A6
:1010E0004868CA68196A1E6A1201BE43F0271E6268
:1010F0009E69BE4332430A26B14301439A61196295
:1011000070219A688A431100572221E0702A12D078
:10111000802080018242CED19A6827484E681040D4
:101120008A68C968324309020A4302439A608022EE
:101130009968D2010CE09A681F484E6810408A688E
:10114000C968324309020A4302439A6077229968C8
:101150000A439A60AFE71026186A4A68B043C96824
:1011600018629E69154F09033E403143A026186A54
:1011700099617021B043120102431A629A688A434E
:1011800011006722E4E74868CA68196A1E6A1201FA
:10119000BE43F0271E629E69BE4332430A26B14316
:1011A00001439A61196270219A688A4311004722AB
:1011B000CEE7C0468800FFFFFF00FFFFFF0FFFFFE5
:1011C00070B504003834227803000220012A13D0BD
:1011D0001D00702639352870186842688368B2434C
:1011E0000E68496832438026B3430B4342608360F4
:1011F000012300202B70207070BD000013B5082261
:101200000021684600F08CFA8022194C194BD20557
:1012100062600122236000232261A218D377A21CFE
:10122000D377C222FF32626222002C321370042272
:101230002000E363A360A363E360A36262612363AE
:10124000A3616363E361FFF755F8002801D000F064
:10125000DBF8094B69460093802320005B01019372
:10126000FFF720F9002801D000F0CEF813BDC046EA
:101270002C000020002401401000001010B50400D4
:1012800086B01422002101A800F04AFA0E4B226811
:101290009A4216D180220D4B9200596BA0200A432E
:1012A00001215A63DA6AC0050A43DA62DB6A0B403D
:1012B0000093009B102301A901930D3B0293FFF7BC
:1012C00099F906B010BDC04600240140001002404C
:1012D000F0B501268027A02587B01422002101A89F
:1012E00000F01EFA154BED05DA6ABF003243DA62F0
:1012F000DB6A00223340009339002800009BFFF78F
:1013000023FA2023002401930D4B01A92800029306
:101310000394FFF76FF901A928000197029603943F
:101320000494FFF767F9220021000720FFF70EF968
:101330000720FFF73BF907B0F0BDC04600100240A0
:10134000000021100022034B1B685A625A6A824235
:10135000FCD37047C400002030B593B03422002184
:1013600005A800F0DDF914220021684600F0D8F944
:101370001349144A0B6800241A4080231B011343AD
:101380000B60022305930E938023DB0210938023CE
:1013900010220125DB0305A80992119308950F94EB
:1013A000FFF72AFA0F232900009368460C3B0193AC
:1013B000029403940494FFF771FC13B030BDC0464F
:1013C00000700040FFE7FFFF70B5FEF757FF802574
:1013D000FFF7C2FFA024FFF77BFFFFF70FFF00F02E
:1013E000D7F800F05DF80748FFF783FDAD00E4058E
:1013F00020002900FFF7AEF9FA208000FFF7A2FFD6
:10140000F6E7C046C4000020704700000122054BEB
:10141000596B0A435A638022996B52050A439A63B7
:101420007047C046001002407047FEE770477047A3
:1014300010B5FEF737FF10BD10B52020FFF794F967
:1014400010BD00008022104B520019680A431A6038
:10145000DA680E490A40DA601A680D490A4001212B
:101460001A609A688A439A601A680A490A401A60A0
:10147000DA6809490A40DA6000221A618022074BC3
:1014800012059A607047C046001002400C40FF8869
:10149000F6FFF6FEFFFFFBFFFFFF02FF00ED00E09F
:1014A00010B586B01022002102A800F039F90822F8
:1014B0000021684600F034F9144C154B154A23609E
:1014C0001F23636000232000A360E2602361636147
:1014D000FFF7F4FC002801D0FFF796FF802302A954
:1014E0005B0120000293FFF7C9FD002801D0FFF740
:1014F0008BFF00236946200000930193FFF760FEF5
:10150000002801D0FFF780FF06B010BDC400002006
:1015100000080140FEFF000080220368D2059342CC
:1015200005D10123064A916B0B4393637047054A2B
:101530009342FBD10423024A516B0B435363F5E7FB
:10154000001002400008014010B5040086B01422CB
:10155000002101A800F0E4F880232268DB059A420C
:1015600012D10120094AD16A0143D162D36A01A98B
:1015700003400093009BA0200723C0050193053B77
:1015800002930593FFF736F806B010BD0010024035
:1015900010B58AB01022002102A800F0C1F808227C
:1015A0000021684600F0BCF81022002106A800F0D7
:1015B000B7F88023294CDB0523601F2363600023D9
:1015C000274A2000A360E26023616361FFF776FC95
:1015D000002801D0FFF718FF802302A95B0120003B
:1015E0000293FFF74BFD002801D0FFF70DFF20000D
:1015F000FFF792FC002801D0FFF706FF00236946A1
:10160000200000930193FFF7DBFD002801D0FFF7D6
:10161000FBFE0022602306A9200006930792089291
:101620000992FFF795FC002801D0FFF7EDFE042298
:1016300006A92000FFF78CFC002801D0FFF7E4FE8C
:10164000082206A92000FFF783FC002801D0FFF73D
:10165000DBFE2000FFF778FF0AB010BD88000020F5
:10166000E70300001348854604200168090E1F2285
:10167000914205D11048012101601048002101600C
:10168000002103E00E4B5B58435004310D480E4BD4
:1016900042189A42F6D30D4A02E000231360043246
:1016A0000B4B9A42F9D3FFF7CDFE00F015F8FFF788
:1016B0008BFEFEE7000800203410024000000140CD
:1016C0006C170008000000200C0000200C00002017
:1016D00000010020FEE7000070B500260C4D0D4C07
:1016E000641BA410A64209D1002600F021F80A4D7F
:1016F0000A4C641BA410A64205D170BDB300EB5880
:1017000098470136EEE7B300EB5898470136F2E709
:1017100064170008641700086417000868170008B9
:1017200003008218934200D1704719700133F9E722
:10173000F8B5C046F8BC08BC9E467047F8B5C04630
:08174000F8BC08BC9E4670478E
:101748000000000000000000010203040607080969
:0C175800030406080C10182030000000EC
:04176400E900000890
:04176800C1000008B4
:0C176C000100000004000000000020004C
:040000050800166574
:00000001FF
