:020000040800F2
:1000000000080020291C0008ED190008EF1900085D
:1000100000000000000000000000000000000000E0
:10002000000000000000000000000000F1190008BE
:100030000000000000000000F3190008F519000896
:10004000991C0008991C0008991C0008991C0008BC
:10005000991C0008991C0008991C0008FD1900084B
:1000600000000000991C0008991C0008991C000859
:10007000991C0008991C000800000000991C000849
:100080000000000000000000000000000000000070
:10009000991C00080000000000000000991C0008E6
:1000A00000000000991C0008000000000000000093
:1000B000991C0008991C00080000000000000000C6
:1000C00010B5064C2378002B07D1054B002B02D02E
:1000D000044800E000BF0123237010BD1000002081
:1000E00000000000F41C0008044B10B5002B03D0E6
:1000F0000349044800E000BF10BDC04600000000F6
:1001000014000020F41C000802B47146490849009C
:10011000095C49008E4402BC7047C0460022430877
:100120008B4274D303098B425FD3030A8B4244D3BF
:10013000030B8B4228D3030C8B420DD3FF22090201
:1001400012BA030C8B4202D31212090265D0030BC0
:100150008B4219D300E0090AC30B8B4201D3CB03B6
:10016000C01A5241830B8B4201D38B03C01A5241F8
:10017000430B8B4201D34B03C01A5241030B8B42FA
:1001800001D30B03C01A5241C30A8B4201D3CB02E5
:10019000C01A5241830A8B4201D38B02C01A5241CA
:1001A000430A8B4201D34B02C01A5241030A8B42CD
:1001B00001D30B02C01A5241CDD2C3098B4201D3E5
:1001C000CB01C01A524183098B4201D38B01C01A63
:1001D000524143098B4201D34B01C01A52410309DA
:1001E0008B4201D30B01C01A5241C3088B4201D389
:1001F000CB00C01A524183088B4201D38B00C01A36
:10020000524143088B4201D34B00C01A5241411A5C
:1002100000D20146524110467047FFE701B5002069
:1002200000F0F0F802BDC0460029F7D076E770472D
:1002300003460B437FD4002243088B4274D3030947
:100240008B425FD3030A8B4244D3030B8B4228D3E8
:10025000030C8B420DD3FF22090212BA030C8B420E
:1002600002D31212090265D0030B8B4219D300E0AE
:10027000090AC30B8B4201D3CB03C01A5241830B33
:100280008B4201D38B03C01A5241430B8B4201D3E3
:100290004B03C01A5241030B8B4201D30B03C01A0C
:1002A0005241C30A8B4201D3CB02C01A5241830A86
:1002B0008B4201D38B02C01A5241430A8B4201D3B5
:1002C0004B02C01A5241030A8B4201D30B02C01ADF
:1002D0005241CDD2C3098B4201D3CB01C01A524146
:1002E00083098B4201D38B01C01A524143098B42CF
:1002F00001D34B01C01A524103098B4201D30B01B8
:10030000C01A5241C3088B4201D3CB00C01A5241DC
:1003100083088B4201D38B00C01A524143088B42A1
:1003200001D34B00C01A5241411A00D2014652413A
:10033000104670475DE0CA0F00D04942031000D359
:100340004042534000229C4603098B422DD3030AAE
:100350008B4212D3FC22890112BA030A8B420CD3BE
:10036000890192118B4208D3890192118B4204D3E7
:1003700089013AD0921100E08909C3098B4201D367
:10038000CB01C01A524183098B4201D38B01C01AA1
:10039000524143098B4201D34B01C01A5241030918
:1003A0008B4201D30B01C01A5241C3088B4201D3C7
:1003B000CB00C01A524183088B4201D38B00C01A74
:1003C0005241D9D243088B4201D34B00C01A52414B
:1003D000411A00D20146634652415B10104601D3D8
:1003E0004042002B00D54942704763465B1000D362
:1003F000404201B5002000F005F802BD0029F8D008
:1004000016E770477047C04670B50500FA200D4BDF
:1004100080001978FFF782FE0B4B01001868FFF788
:100420007DFE00F08FFA04000120002C09D1032D7D
:1004300007D802382200290000F04AFA2000034BB6
:100440001D6070BD000000200C0000200400002092
:100450004023084A10B5116800200B431360FFF7D2
:10046000D3FF041E03D101F0B3FA200010BD012414
:10047000FBE7C04600200240034A044B11681B788A
:100480005B1813607047C0462C000020000000205D
:10049000014B18687047C0462C00002070B504005E
:1004A000FFF7F6FF0500631C02D0044B1B78E4182D
:1004B000FFF7EEFF401B8442FAD870BD0000002019
:1004C000084B13B5040008491868FFF727FE44439A
:1004D0000194019B002B00D113BD019B013B0193B3
:1004E000F7E7C0460C00002040420F0003210368DC
:1004F00070B59A6804000A40012A0DD119681142AA
:100500000AD0002070BD10230120626D1343636583
:10051000A36D0343A365F5E799680F4A1142F2D131
:1005200001259A6828002A439A60FFF7C9FFFFF760
:10053000AFFF060023681B682B42E2D1FFF7A8FF3C
:10054000801B0A28F6D91023626D012013436365CE
:10055000A36D1D43A565D5E71700008070B50400A5
:100560000120002C19D0636D002B06D122005032DF
:10057000A3652000137001F05BF8636DDB0604D403
:10058000042223689868104008D01023626D01206F
:100590001343636500235034237070BD626D554969
:1005A000114002220A436265032299681140524AAF
:1005B000012902D11D680D4219D180266568F60512
:1005C00069004908B14203D0802109068D4276D1E5
:1005D000196989008908196119690D431D61182578
:1005E000D968A943D960D968A5682943D960116839
:1005F000424D29401160616B15684906294311601D
:10060000802299685205114202D199680A439A6082
:10061000DA683B490A402169DA60DD68E26802294C
:1006200000D10420266B611C32432A43A569C97F8F
:10063000AD032A43E569ED032A434D032A43250010
:100640002C352D786D002A430243C220DA60626A9D
:10065000FF30824204D0A56AD8682A430243DA6098
:10066000A21CD27F012A06D1002934D18022D96868
:1006700052020A43DA60E16B1A69012933D1214839
:10068000656C02401A61226C18692A43A56C2A43E2
:1006900002431A611A691143196107215A6900203E
:1006A0008A435A615A69A16B0A435A610322A065C1
:1006B000636D93431A000123134363656DE7196962
:1006C000114E890089081961116831401160116863
:1006D0000D43156083E72021606D01436165A16DC5
:1006E0000A43A265C7E701210A42D6D01A698A43A4
:1006F0001A61D2E7FDFEFFFF08270140FFFFFFFD63
:100700001902FEFF03FCFFFFFFFFC3FF036870B584
:100710009B68040002205B071AD4250050352B7813
:10072000012B15D001232B70E369012B11D1636DCF
:100730000B4A00201A4080235B0013431C22636590
:100740002368A06528701A609968183A0A439A606D
:1007500070BD2000FFF7CAFE0028F9D1E7E7C046C8
:10076000FEF0FFFFF8B5456904000E00082D0DD01E
:1007700003680120DB680C25034207D02023626D4B
:1007800050341343636000232370F8BDFFF780FEED
:10079000070023681A682A4224D08022616D9200E3
:1007A0000A436265C022D9681201114213D1621C4A
:1007B000D27F002A0FD11A6812070CD59A68520707
:1007C00023D40C215A688A435A60626D1349114040
:1007D00001220A4362650020A2698242D5D10C221F
:1007E0001A60D2E7721CD5D0002E08D10423626DA6
:1007F000503413436360002303202370C5E7FFF7E1
:1008000047FEC01B8642C4D2F0E72022616D0A4336
:1008100062650122A16D0A43A265DCE7FEFEFFFFCF
:100820000368186C7047000070B5040050342378DA
:1008300006000D000220012B0BD0326801389168B0
:1008400020704B0706D52022716D0A437265002285
:10085000227070BD80201A496E682B68C0028E42DB
:100860001BD0966A5903490B31439162034208D069
:100870008023144A1B0411680A200B431360FFF7FE
:100880001FFE2B689B0305D580230E4ADB031168EE
:100890000B43136000202070DBE7916A5D036D0B52
:1008A000A9439162034204D0064907480A680240FE
:1008B0000A609B03EED5034A044913680B40E8E73E
:1008C0000110000008270140FFFF7FFFFFFFBFFF6F
:1008D00070B58901002814DA0F23C0B20340083B29
:1008E000114A9B089B009B18032210409040FC3249
:1008F0001500114085408140DC69AC432143D9613A
:1009000070BD032583082840A840FC352E00074A07
:100910009B009B18C02286402940814092009C5831
:10092000B44321439950EBE700ED00E000E100E023
:100930001F2318401E3B8340014A13607047C04686
:1009400000E100E0094A431E012093420DD8C02176
:10095000074A08485360036A09061B021B0A0B4337
:10096000036200200723906013607047FFFFFF00C1
:1009700010E000E000ED00E0F0B50B6885B00293F8
:100980000023029ADA4001D105B0F0BD01249C4059
:10099000029A2240019200D18BE04A6817009446E7
:1009A000102297437A1E012A12D803265D00AE401A
:1009B0008268B243CE68AE4032438260426801250D
:1009C000A2431400624612092A409A402243426020
:1009D00003255E00B5408A68ED43B240C4682C40F0
:1009E0002243C260022F0FD1DA0892000724821836
:1009F000176A03920F221C40A400A24097430A6981
:100A0000A2401743039A1762026803241540624606
:100A10002240B240802415436246640505602242AC
:100A200047D001250F27244C626B2A4302351D4015
:100A3000AD00AF406263214A9C08A400A418A668D8
:100A40000022BE43A027FF05B84208D01C4F013248
:100A5000B84204D01B4F0532B84200D1043AAA4034
:100A600067463243A260184A019C1668019DE44320
:100A70003543FF0301D435002540674615605668AD
:100A8000019D3543BF0301D43500254067465560BD
:100A90009668019D3543FF0201D435002540674625
:100AA0009560D568019E2E43BF0201D425402E00DB
:100AB000D660013365E7C0460010024000000140E7
:100AC000000400500008005000040140002A01D03A
:100AD000816170478162FCE7044B10B55A6910428E
:100AE00002D0586100F06AFF10BDC046000401400A
:100AF0000C22184B10B5D9680A40082A26D00C2AB7
:100B000006D0042A1AD11B68DB0621D4124810BD76
:100B10008A021248120F825C0902D868890F0131DB
:100B2000C00304D50E485043FFF7F8FAEFE71B68FF
:100B3000DB0601D50B48F6E70748F4E780205B6841
:100B400000021B045B0F01339840E0E70448DEE736
:100B50000448DCE7001002400024F4001C1D0008DB
:100B600000127A0000093D00F0B5050087B00028AA
:100B700002D1012007B0F0BD0C23C04CE668E2684A
:100B80001E4080235B021A4001920268D2073DD4C6
:100B90002B689B0700D583E02B68DB0628D5002E49
:100BA00000D0DDE023689B0502D5AB69002BE0D0C7
:100BB0006268B3492B6A0A401A4362606168EA6955
:100BC0000902090A12060A43626080225B0B0133A4
:100BD00012029A401300E16800200A06A949120F88
:100BE0008A5CD340A84A1360FFF70EFC0028C1D1ED
:100BF0002B681B0700D5EAE02B685B0700D50CE1EA
:100C00006B6A002B00D091E10020B3E7082E04D0DE
:100C10000C2E09D1019A002A06D023689B03B7D570
:100C20006B68002BB4D1A4E76A689A4211D122689C
:100C300013432360FFF72CFC0700802223689202F5
:100C40001342A5D1FFF724FCC01B6428F5D903206B
:100C500090E7A021C9028A4205D180222168D202F0
:100C60000A432260E3E72168884801402160216847
:100C70000B400593059B864923680B402360002A9F
:100C8000D8D1FFF705FC07008022236892021342A7
:100C900000D17DE7FFF7FCFBC01B6428F4D9D6E741
:100CA0002022EB68134203D0216893431143216053
:100CB000042E04D00C2E25D1019A002A22D12268BC
:100CC000520702D5002B00D153E761682A697148A9
:100CD000120201400A430921626022688A431343D9
:100CE0002360FFF705FFE368664A1B061B0FD35C12
:100CF000D840654B18600020FFF786FB002800D124
:100D00004AE737E7002B19D0092122688A431343A9
:100D10002360FFF7BDFB070004222368134207D0BE
:100D200062682B695B491B020A401343636033E727
:100D3000FFF7AEFBC01B0228EED988E7012223682B
:100D400093432360FFF7A4FB0700042223681342A8
:100D500000D121E7FFF79CFBC01B0228F5D976E7FD
:100D6000AB69002B20D0802322685B0013432360F3
:100D7000FFF78EFB070080222368920013420DD0FC
:100D800063683F4A13402A6A134363606268EB69F1
:100D900012021B06120A1343636029E7FFF778FB70
:100DA000C01B0228E7D952E723683B4A134023605F
:100DB000FFF76EFB0700802223689200134200D1E8
:100DC00016E7FFF765FBC01B0228F4D93FE76A6905
:100DD0000123002A10D0226D13432365FFF758FB2F
:100DE00007000222236D134200D005E7FFF750FBF6
:100DF000C01B0228F5D92AE7226D9A432265FFF726
:100E000047FB07000222236D134200D1F4E6FFF7EF
:100E10003FFBC01B0228F5D919E780230021A26BF4
:100E20005B0501911A4204D1A26B1343A363012312
:100E300001938022194F52003B68134208D0802250
:100E4000AB68520093422BD1226D134323654CE0D3
:100E500080223B68520013433B60FFF719FB80235D
:100E60005B00029003933B68039A1342E7D1FFF7BC
:100E70000FFB029BC01A6428F5D9E8E60010024077
:100E8000FF1FFFFF0C1D00080C000020FFFFFEFFEE
:100E9000FFFFFBFFFFE0FFFFFFFEFFFF00700040D2
:100EA000002B16D1236D534A13402365236D524AFC
:100EB00013402365FFF7ECFA07008022236D9200B0
:100EC00013422AD0FFF7E4FA4C4BC01B9842F4D9E6
:100ED000BDE6A021C9008B420BD18023216DDB0030
:100EE0000B432365236D1A432265FFF7D1FA0700F0
:100EF0000EE0236D3F4A13402365236D3E4A1340A5
:100F0000A4E7FFF7C5FA3D4BC01B984200D99EE607
:100F10008022236D92001342F3D0019B012B00D05D
:100F20006EE6A36B364A1340A36369E60C2E43D0EA
:100F3000344A022B2ED12368802613402360FFF70A
:100F4000A7FA0700B604236833421DD1E96AAB6AE9
:100F5000E2680B432C490A4013432A6B8025134354
:100F6000E360802322685B0413432360FFF790FA59
:100F70000600AD0423682B4200D045E6FFF788FA4F
:100F8000801B0228F6D962E6FFF782FAC01B02280E
:100F9000D9D95CE62368802513402360FFF778FAEF
:100FA0000600AD0423682B4200D12DE6FFF770FA4E
:100FB000801B0228F6D94AE61800012B00D1D9E59A
:100FC0008022E368A96A52021A4001208A4200D0B6
:100FD000D0E5F022E96A92031A408A4200D0C9E5BE
:100FE000C02000040340286B181A431E9841C0B269
:100FF000C0E5C046FFFEFFFFFFFBFFFF88130000B8
:10100000FFFFFFEFFFFFFFFEFFFF02FFF7B5061E2A
:10101000019101D10120FEBD0122514C01992368AB
:1010200013408B4227D3326893072FD4D30735D48C
:101030000123226801991A40914200D281E032686E
:10104000484C530700D584E0130706D5E26833699E
:101050004549DB000A401343E360FFF749FDE368BD
:10106000424A1B061B0FD35CD840414B186000203E
:10107000FFF7CAF9CFE72368019993430B43236035
:1010800023681340019A9A42C4D1CCE7F020354935
:10109000CB688343B0680343CB60C7E7314D7268C8
:1010A0002B68022A19D19B03B4D50321EB688B432B
:1010B0001343EB60FFF7ECF973680700022B19D1BB
:1010C0000C22EB681340082BB2D0FFF7E1F9294B53
:1010D000C01B9842F4D903209DE7032A02D19B014B
:1010E000E3D497E7012A02D15B07DED492E79B05A0
:1010F000DBD48FE7032B0BD10C22EB681340934218
:1011000096D0FFF7C5F91B4BC01B9842F4D9E2E714
:10111000012B10D00C22EB68134289D0FFF7B8F9ED
:10112000144BC01B9842F5D9D5E7FFF7B1F9114B25
:10113000C01B9842CFD80C22EB681340042BF4D18B
:1011400076E722689A43226022681A4200D061E75B
:1011500075E7E36808490B40F1680B43E36073E708
:101160000020024000100240FFC7FFFF0C1D0008D6
:101170000C00002088130000FFF8FFFF802210B54C
:101180000368D205904202D00D4CA0420CD17024CD
:10119000A3434C682343904202D0094A904203D1B2
:1011A000084A1340CA681343802293430A691343D1
:1011B00003608B68C3620B6883620123436110BDC7
:1011C00000080140FFFCFFFF012230B57325036AD0
:1011D00093430362036A44688269AA430D682A4301
:1011E0000225AB438D68446082614A682B434263A9
:1011F000036230BD1022036A30B593430362036A71
:10120000094C4568826914400A681202224320246E
:10121000A3431C008B6845601B0182614A6823431D
:101220008263036230BDC046FF8CFFFF1F2310B5F1
:10123000012419408C408A40036AA3430362036A75
:101240001A43026210BD70B504000120002C14D0B6
:10125000250039352B78DBB2002B05D1220038323E
:101260001370200000F03AFC022320682B70211D2F
:10127000FFF784FF012300202B7070BD01000223C3
:1012800039310B70036807209A680240062A03D0A0
:101290000122186802431A60012300200B70704776
:1012A000704770B504000120002C14D0250039359A
:1012B0002B78DBB2002B05D12200383213702000CE
:1012C000FFF7EEFF022320682B70211DFFF756FF6A
:1012D000012300202B7070BD10B5040001220068AE
:1012E000FFF7A4FF072123689A680A40062A03D063
:1012F000012219680A431A60002010BD10B5FFF7DB
:10130000EBFF10BDF8B50500022338350C00297835
:1013100007001800012925D03E0001213936297027
:1013200033700C2A1AD81000FEF7EEFE07181818B2
:101330001D1818182F181818520021003868FFF7C8
:1013400043FF08223B6899690A4304219A619A691C
:101350008A439A619A69E1680A439A6101230020ED
:1013600033702870F8BD21003868FFF743FF8022F2
:101370003B68120199690A439A619A6926490A40B1
:101380009A61E26899691202E6E773203B68234993
:101390001A6A0A401A621A6A5F68D969814320682A
:1013A00001431F481040A2685F601202D961616862
:1013B0000243D9631A620822D9690A430421DA6117
:1013C000DA698A43DA61DA69E1680A43DA61C5E712
:1013D0003B6814491A6A14480A401A621A6A5F681C
:1013E000D969014020680002014310481040A268FA
:1013F0005F601203D9616168024319641A62802236
:10140000D96912010A43DA61DA6903490A40DA61EB
:10141000E268D9691202D8E7FFFBFFFFFFFEFFFF7A
:10142000FFFDFFFFFFEFFFFFFF8CFFFFFFDFFFFF71
:10143000F0B5040002223834257803001000012D95
:1014400017D01D0001271B68393527702A709A684C
:10145000454802409A600A68402A00D16DE014D8DD
:10146000102A0BD006D8002A08D0012300202B70A8
:101470002070F0BD202A01D0302AF6D17021986862
:10148000884369390A4302433DE0602A3DD017D8BA
:10149000502AEAD14868CA68196A1E6A1201BE4316
:1014A000F0271E629E69BE4332430A26B1430143C0
:1014B0009A61196270219A688A431100572221E0CB
:1014C000702A12D0802080018242CED19A682748AB
:1014D0004E6810408A68C968324309020A430243D1
:1014E0009A6080229968D2010CE09A681F484E6881
:1014F00010408A68C968324309020A4302439A606D
:10150000772299680A439A60AFE71026186A4A68FA
:10151000B043C96818629E69154F09033E403143C4
:10152000A026186A99617021B043120102431A6221
:101530009A688A4311006722E4E74868CA68196A12
:101540001E6A1201BE43F0271E629E69BE433243EB
:101550000A26B14301439A61196270219A688A434D
:1015600011004722CEE7C0468800FFFFFF00FFFFC3
:10157000FF0FFFFF70B5040038342278030002200B
:10158000012A13D01D00702639352870186842686A
:101590008368B2430E68496832438026B3430B43E5
:1015A00042608360012300202B70207070BD00001A
:1015B00013B508220021684600F094FB8022194CE4
:1015C000194BD20562600122236000232261A21818
:1015D000D377A21CD377C222FF32626222002C3260
:1015E000137004222000E363A360A363E360A3629B
:1015F00062612363A3616363E361FEF7AFFF0028C9
:1016000001D000F0E3F9094B6946009380232000E4
:101610005B010193FFF708F9002801D000F0D6F92B
:1016200013BDC0463000002000240140100000100F
:1016300010B5040086B01422002101A800F052FB6E
:101640000E4B22689A4216D180220D4B9200596BA4
:10165000A0200A4301215A63DA6AC0050A43DA620C
:10166000DB6A0B400093009B102301A901930D3B03
:101670000293FFF781F906B010BDC0460024014077
:1016800000100240F0B501268027A02587B0142263
:10169000002101A800F026FB154BED05DA6ABF001A
:1016A0003243DA62DB6A00223340009339002800BB
:1016B000009BFFF70BFA2023002401930D4B01A997
:1016C000280002930394FFF757F901A92800019716
:1016D000029603940494FFF74FF92200210007209B
:1016E000FFF7F6F80720FFF723F907B0F0BDC04673
:1016F00000100240000021100022034B1B685A62B8
:101700005A6A8242FCD37047C8000020F8B5802591
:10171000A02607000024AD00F605BC4200DBF8BDA2
:10172000012229003000FFF7D1F90D20FFF7E4FF77
:10173000002229003000FFF7C9F90D20FFF7DCFF78
:101740000134EAE7F7B5060006200C0048430721FC
:10175000FEF76EFDC3B29C20052160430193FEF7A6
:1017600067FD0024012785B2B44200DBF7BD3C428F
:1017700004D02800FFF7C0FF0134F5E70198FFF718
:10178000C5FFF9E730B593B03422002105A800F079
:10179000A9FA14220021684600F0A4FA1349144A59
:1017A0000B6800241A4080231B0113430B600223A3
:1017B00005930E938023DB021093802310220125D2
:1017C000DB0305A80992119308950F94FFF7CCF954
:1017D0000F232900009368460C3B01930294039465
:1017E0000494FFF713FC13B030BDC04600700040F6
:1017F000FFE7FFFFF0B587B0FEF72AFEFFF7C2FF55
:10180000FFF740FFFFF7D4FE00F0A4F900F02AF93B
:101810006448FFF733FD644C00212000FFF76EFDA4
:1018200004212000FFF76AFDFA2620000024082189
:101830005E4FFFF763FD76000394029401940094D9
:101840005B4B1D78EDB2002D33D16422564B17212E
:101850001B680A205A639D63DD63FFF773FF9620C0
:10186000FEF71CFE0123524A05931370504B1B7860
:10187000DBB20493002B0BD117210A20FFF762FF84
:101880009620FEF70BFE6A46494B127D049D1A70A6
:101890000598FEF703FEC2230135FF339D42E5DDC7
:1018A000414B019A1B685A63029A9A63039ADA635E
:1018B000C6E73E4B9F420AD09E424CD0009B1A0086
:1018C0003A4B9A4253D0002E5DD0012C41D10124D5
:1018D000009B013F013301369BB2BFB2B6B2009309
:1018E000344D2800FEF712FFFA2128008900FEF788
:1018F00039FF2800FEF794FF83B2B32B4DD9C82BD4
:1019000012D918002C4978431D00FEF791FC019074
:10191000280029497043FEF78BFC02900098264965
:101920006843FEF785FC039014251F4B019A1B6842
:101930005A63029A9A63039ADA631D4B1B78002B51
:1019400000D17DE70120013DFEF7A8FD002DF4D177
:1019500076E7022C09D1009B013F0133013E9BB287
:10196000BFB2B6B200930224BAE7032C09D1009BA0
:101970000137013B013E9BB2BFB2B6B200930324D4
:10198000AEE7042CACD1009B0137013B01369BB282
:10199000BFB2B6B200930424A2E7002303930293DC
:1019A0000193C1E7C80000208C000020E70300007D
:1019B0000800002030000020FF0F0000202802D186
:1019C0000022014B1A707047080000207047000089
:1019D0000122054B596B0A435A638022996B5205C9
:1019E0000A439A637047C046001002407047FEE702
:1019F0007047704710B5FEF73FFD10BD10B52020B1
:101A0000FFF76AF810BD00008022104B52001968E1
:101A10000A431A60DA680E490A40DA601A680D490A
:101A20000A4001211A609A688A439A601A680A4932
:101A30000A401A60DA6809490A40DA6000221A612D
:101A40008022074B12059A607047C0460010024082
:101A50000C40FF88F6FFF6FEFFFFFBFFFFFF02FFD3
:101A600000ED00E010B586B01022002102A800F0C1
:101A700039F908220021684600F034F9144C154B5E
:101A8000154A23601F23636000232000A360E260E7
:101A900023616361FFF7D7FB002801D0FFF796FFB2
:101AA000802302A95B0120000293FFF7C1FC0028FC
:101AB00001D0FFF78BFF00236946200000930193BC
:101AC000FFF758FD002801D0FFF780FF06B010BDDA
:101AD000C800002000080140FFFF000080220368CA
:101AE000D205934205D10123064A916B0B439363C0
:101AF0007047054A9342FBD10423024A516B0B43C2
:101B00005363F5E7001002400008014010B50400DF
:101B100086B01422002101A800F0E4F88023226896
:101B2000DB059A4212D10120094AD16A0143D162F0
:101B3000D36A01A903400093009BA0200723C0059E
:101B40000193053B02930593FEF716FF06B010BD07
:101B50000010024010B58AB01022002102A800F047
:101B6000C1F808220021684600F0BCF810220021CC
:101B700006A800F0B7F88023294CDB0523601F235B
:101B800063600023274A2000A360E2602361636151
:101B9000FFF759FB002801D0FFF718FF802302A9A7
:101BA0005B0120000293FFF743FC002801D0FFF700
:101BB0000DFF2000FFF775FB002801D0FFF706FF9F
:101BC00000236946200000930193FFF7D3FC00280F
:101BD00001D0FFF7FBFE0022602306A92000069338
:101BE000079208920992FFF78DFB002801D0FFF7BA
:101BF000EDFE042206A92000FFF784FB002801D097
:101C0000FFF7E4FE082206A92000FFF77BFB00286F
:101C100001D0FFF7DBFE2000FFF778FF0AB010BD10
:101C20008C000020E703000013488546042001686B
:101C3000090E1F22914205D1104801210160104870
:101C400000210160002103E00E4B5B58435004313A
:101C50000D480E4B42189A42F6D30D4A02E000237B
:101C6000136004320B4B9A42F9D3FFF7CDFE00F01C
:101C700015F8FFF7BFFDFEE7000800203410024012
:101C800000000140301D000800000020100000206E
:101C90001000002004010020FEE7000070B50026BF
:101CA0000C4D0D4C641BA410A64209D1002600F077
:101CB00021F80A4D0A4C641BA410A64205D170BD40
:101CC000B300EB5898470136EEE7B300EB5898475E
:101CD0000136F2E7281D0008281D0008281D00080D
:101CE0002C1D000803008218934200D17047197020
:101CF0000133F9E7F8B5C046F8BC08BC9E4670470A
:0C1D0000F8B5C046F8BC08BC9E46704711
:101D0C00000000000000000001020304060708099F
:0C1D1C00030406080C1018203000000022
:041D2800E9000008C6
:041D2C00C1000008EA
:101D3000010000000400000001000000000020007D
:0400000508001C29AA
:00000001FF
