:020000040800F2
:1000000000800020092D00088128000883280008AE
:1000100085280008872800088928000800000000BB
:100020000000000000000000000000008B28000815
:100030008D280008000000008F2800089128000883
:10004000512D0008512D0008512D0008512D000898
:10005000512D0008512D0008512D0008512D000888
:10006000512D0008512D0008512D0008512D000878
:10007000512D0008512D0008512D0008512D000868
:10008000512D0008512D0008512D0008512D000858
:1000900095280008512D0008512D0008512D000809
:1000A000512D0008512D0008512D0008512D000838
:1000B000512D0008512D0008512D0008512D000828
:1000C000512D0008512D0008512D0008512D000818
:1000D000512D0008512D0008A1280008512D0008BD
:1000E000512D0008512D0008512D0008512D0008F8
:1000F000512D00080000000000000000000000007A
:1001000000000000000000000000000000000000EF
:1001100000000000000000000000000000000000DF
:1001200000000000000000000000000000000000CF
:0C01300000000000000000005FF808F173
:10013C0010B5054C237833B9044B13B10448AFF315
:10014C0000800123237010BD4C0100200000000032
:10015C00AC2D000808B5034B1BB103490348AFF3A2
:10016C00008008BD0000000050010020AC2D0008EC
:10017C0038B50F4B0546186808B9012038BD4FF447
:10018C007A73B3FBF0F30B4A1068B0FBF3F000F09A
:10019C009DF804460028F0D10F2DEED802462946D2
:1001AC004FF0FF3000F050F8034B20461D6038BD77
:1001BC0000000020F80000200400002010B50320EF
:1001CC0000F030F80020FFF7D3FF044618B902F016
:1001DC002FFB204610BD0124FBE70000034A044915
:1001EC00136809680B441360704700BF800100203E
:1001FC0000000020014B1868704700BF80010020F0
:10020C0038B50446FFF7F6FF0546631C1EBF044BCA
:10021C001B68E418FFF7EEFF401B8442FAD838BD88
:10022C0000000020074A0002D36800F4E06023F4C9
:10023C00E0631B041B0C43F0BF6343F40033034324
:10024C00D360704700ED00E0174B30B5DC68C4F3A9
:10025C000224C4F10703251D042B28BF0423062DFB
:10026C004FF0010598BF002405FA03F303F1FF33A7
:10027C0088BF033C1940A14005FA04F4013C22401C
:10028C00002842EA01024FEA0212A9BF00F16040C5
:10029C00064BD2B200F56140BBBF00F00F00D2B2EA
:1002AC0080F800231A5430BD00ED00E014ED00E09E
:1002BC00002808DB0123420900F01F0003FA00F0BC
:1002CC00014B43F82200704700E100E00138B0F127
:1002DC00807F0AD2F021064B064A586082F8231020
:1002EC000020072298601A6070470120704700BFF9
:1002FC0010E000E000ED00E090F8212010B5022A9B
:10030C0003D004228263012010BD0268C46B116803
:10031C00436B21F00E011160116821F00101116095
:10032C000121026C02F01C0201FA02F2626000244C
:10033C0080F8211080F8204013B19847204610BD5A
:10034C00184610BD00232DE9F04F624AD1F8008009
:10035C00DFF8889185B038FA03F402D105B0BDE816
:10036C00F08F01249C4018EA0406019400F0A78049
:10037C004C6824F0100ABAF1020F16D14FF00F0E90
:10038C004FEAD30C00EB8C0C03F0070BDCF820507D
:10039C004FEA8B0B0EFA0BFE25EA0E0E0D6905FAD1
:1003AC000BF545EA0E05CCF8205003254FEA430C1B
:1003BC0005FA0CF5ED43D0F800B004F0030E0BEA8F
:1003CC00050B0EFA0CFE0AF1FF3A4EEA0B0EBAF1CF
:1003DC00010FC0F800E016D8D0F808E0CF6805EAA5
:1003EC000E0E07FA0CFA4AEA0E0EC0F808E0D0F826
:1003FC0004E0019F2EEA0707C4F3001E0EFA03FE69
:10040C004EEA07074760C7683D408F6807FA0CF74C
:10041C003D43C560E50052D54FF00F0ED9F8205082
:10042C0023F0030745F00105C9F82050D9F82050F6
:10043C0007F1804705F00105039507F5803703F0B8
:10044C00030C039D4FEA8C0CBD680EFA0CFE25EADA
:10045C000E0E214DA84234D005F58065A84232D04D
:10046C0005F58065A84230D005F58065A8422ED0F0
:10047C0005F58065A84214BF0525042505FA0CF581
:10048C0045EA0E05BD60F743156814F4803F0CBFB8
:10049C003D4035431560556814F4003F0CBF3D409A
:1004AC0035435560956814F4801F0CBF3D403543AF
:1004BC009560D568A40254BF3D403543D5600133E7
:1004CC0049E70025DAE70125D8E70225D6E7032519
:1004DC00D4E700BF00040140000002400038024095
:1004EC000AB1816170470904FBE770B5044686B018
:1004FC00002851D090F8293203F0FF021BB980F884
:10050C00282202F069FA0323206884F8293201F0CA
:10051C00AAF80022012615466068D3B2984202F16F
:10052C0001021AD800221146D3B2984202F10102FC
:10053C0022D86D4604F110060FCE0FC533682B6020
:10054C00231D0ECB206801F098F80020012384F8BD
:10055C00240084F8293206B070BD04EB431181F8F5
:10056C002830CB8602335B0181F8296081F82B504F
:10057C008D63CD63E550D0E704EB431585F8283146
:10058C000A335B0185F8291185F82B11C5F8381150
:10059C00C5F83C11E150C7E70120DCE790F82832A0
:1005AC0010B5012B04460ED0012180F8281200F062
:1005BC003BFB206801F038FB206801F04BF8002071
:1005CC0084F8280210BD022010BD90F8282210B526
:1005DC00012A04460BD0012280F8282284F824102A
:1005EC00006801F01BFB002084F8280210BD0220DB
:1005FC0010BD70B511F0800F044601F007004FEAF2
:10060C0040151FD0012605F128012544214485F809
:10061C0029600A614A78C0B20870CB7002B1C881F7
:10062C00022B04BF00230B7194F82832012B11D03C
:10063C000123206884F8283201F03AF8002084F86D
:10064C00280270BD002605F594712544214485F8D7
:10065C002961DEE7022070BD01F0070311F0800F65
:10066C0010B54FEA4312044615D002F1280101449B
:10067C000244012082F829000B7094F82832012BD7
:10068C0011D00123206884F8283201F07DF9002074
:10069C0084F8280210BD02F5947101440244002034
:1006AC0082F82901E8E7022010BD70B5002601F0A0
:1006BC0007014D01441984F8281105F59471014482
:1006CC00C4F83C21C4F84031C4F8446184F8296171
:1006DC00006801F0C5FA304670BD01F0070170B535
:1006EC004D01441923640026012384F8281005F1D8
:1006FC0028010144E263666484F82930006801F043
:10070C00AFFA304670BD00002DE9F84F0446006882
:10071C0001F08CFA000400F1FC81206801F086FAEB
:10072C0041050FD522682046B2F8443023F480638B
:10073C001B041B0CA2F8443002F085F90021204662
:10074C00FFF743FF206801F071FA470408D52268CF
:10075C00B2F8443023F480431B041B0CA2F8443041
:10076C00206801F063FA860408D52268B2F8443098
:10077C0023F400531B041B0CA2F84430206801F036
:10078C0055FAC5041CD522682046B2F8403023F037
:10079C0004031B041B0CA2F84030B2F8403023F0C9
:1007AC0008031B041B0CA2F8403002F06FF92268FE
:1007BC00B2F8443023F480531B041B0CA2F84430D1
:1007CC00206801F033FA00051DD52068B0F84030E0
:1007DC009BB243F00803A0F84030B0F8443023F447
:1007EC0000631B041B0CA0F84430B0F840309BB2E3
:1007FC0043F00403A0F8403001F018FAC10402D40D
:10080C00204602F033F9206801F010FA82050BD56E
:10081C0022682046B2F8443023F400731B041B0CEE
:10082C00A2F8443002F00BF9206801F0FFF9C3057F
:10083C0008D52268B2F8443023F480731B041B0CD7
:10084C00A2F84430BDE8F88FB0F8441089B211F02A
:10085C000F0640F0AC80038811F010019BB22CD134
:10086C0003EA090343F400430380B0F8503094F8D2
:10087C0028209BB203EBC20300EB4300B0F8043416
:10088C00E26BC3F3090363641344E363204602F091
:10089C00CFF894F8243053B1226C42B994F8243038
:1008AC00216843F08003A1F84C3084F824202068A0
:1008BC00B0F844301B04C7D42FE71A0521D5B0F883
:1008CC00503094F828219BB203EBC20300EB430396
:1008DC00B3F80C34B4F82E21C3F30903C4F8443133
:1008EC0004F50C7101F08EFA22682046138823F06F
:1008FC0070031B051B0D43F08003138002F08AF874
:10090C00D5E71F04D3D5038823F070031B051B0DFB
:10091C0043F080030380B0F8503094F828219BB248
:10092C0003EBC20300EB4303B3F80C34C3F309032A
:10093C00C4F8443163B1B4F82E21D4F83C1101F061
:10094C0061FAD4F83C31D4F844211344C4F83C3156
:10095C002046002102F064F82068D4F83831B0F851
:10096C00502000F20C4592B233B9AB5A23F4F84341
:10097C0043EA0A03AB5207E03D2B14D85908DE07B3
:10098C0048BF01318902A952038823F4804323F024
:10099C0070031B041B0C83F4405343F4004343F0DB
:1009AC008003038083E75B094AEA8323E2E730F89C
:1009BC0026801FFA88F818F4004F3DD030F8263006
:1009CC00770123F070031B051B0D43F0800320F807
:1009DC002630E11991F83431002B58D1B0F8503051
:1009EC0091F828219BB2063303EBC20300EB4303BF
:1009FC00B3F80054C5F3090535B1B1F82E212B46D7
:100A0C00D1F83C1101F0FEF9E119D1F84431D1F8DB
:100A1C003C212B44C1F84431D1F840312A44C1F86F
:100A2C003C211BB1D1F83801854269D2274497F893
:100A3C002811204601F0F4FF18F0800F3FF437AF77
:100A4C002168204631F8262092B202EA090242F4CB
:100A5C00004221F82620B1F8503004EB461696F8E7
:100A6C0028209BB2023303EBC20301EB4303B3F820
:100A7C000024F36BC2F3090272641A44336CF26300
:100A8C0096F82810002B41D101F0D2FF0FE791F816
:100A9C00283130F82320DB0012F4804FB0F85020BE
:100AAC0092B21FD00232134400EB4303B3F800544C
:100ABC00C5F3090535B12B46B1F83021D1F83C11FD
:100ACC0001F0A0F9E31993F82811226832F82130CB
:100ADC009BB203EA0B0343F4004343F0C00322F838
:100AEC00213091E70632134400EB4303B3F8005472
:100AFC00C5F30905002DE5D02B46B1F83221DDE711
:100B0C0091F828112046FFF7D0FD95E7FFF7E5FD9A
:100B1C00CDE6DFF80C90DFF80CA0DFF80CB0C6E6E1
:100B2C000F8FFFFF0080FFFF8F8FFFFF38B54368EB
:100B3C0001F007059D42044628D80B061DD501225D
:100B4C006B0103F128010344014483F8292001239C
:100B5C000D708B7094F828229A4219D084F82832A0
:100B6C00206800F0F0FF25B904F50C71206801F045
:100B7C0061F8002084F8280238BD00224B0103F5EF
:100B8C0094710344014483F82921E0E7012038BD26
:100B9C00022038BD38B5436801F00F029A42044672
:100BAC0026D801F0070311F0800F4FEA431217D03B
:100BBC0002F1280101440244012082F82900002599
:100BCC000B708D7094F82832012B13D00123206800
:100BDC0084F8283200F0D7FF84F82852284638BD14
:100BEC0002F5947101440244002082F82901E6E7E1
:100BFC00012038BD022038BD11F0800F1BBF01F061
:100C0C00070100EB411000EB4110283008BF00F544
:100C1C0094701AB90273C3800020704701220381BB
:100C2C001B0C02734381F7E7704700001C4B82B02A
:100C3C009A6812F0F00F0CD000221A490B6823F0BE
:100C4C00010313430B60086800F00100504002B030
:100C5C0070475A6A144912F0805F0FD00A6802F488
:100C6C00C052B2F5C05FE7D1B0F5404FE4D10D4AA8
:100C7C00136843F0040313600122DEE75A6A42F062
:100C8C0080525A625A6A02F080520192019A0A68A2
:100C9C00596A02F4C05221F080515962E1E700BF59
:100CAC0000380240003C0240007000402DE9F74340
:100CBC00044608B9012077E0A04B02689E689F6843
:100CCC00D00706F00C0607F480374BD4236899073D
:100CDC0000F192802368D80636D5002E40F0DC80D7
:100CEC00964D2B68990502D5A369002BE2D06B6851
:100CFC00206A03F46043984240F2BC80FFF796FFF1
:100D0C000028D7D16B68226A23F4604313436B60CD
:100D1C006B68E26923F07F4343EA02636B60874BA5
:100D2C009968236A5B0B5A1C4FF400439340C1F340
:100D3C00031283498A5CD340824A1360824B186841
:100D4C00FFF716FA00282FD12368180700F1D3807B
:100D5C002368590700F10081606A002840F06A811D
:100D6C00002021E0082E02D00C2E07D137B11B68D1
:100D7C009A03ABD56368002BA8D19BE763686F4DD2
:100D8C00012B14D12B6843F480332B60FFF732FA1C
:100D9C0080466A4D2B689B0398D4FFF72BFAA0EB87
:100DAC0008006428F6D9032003B0BDE8F083ABB982
:100DBC002B6823F480332B602B6823F480232B6067
:100DCC00FFF718FA80462B6898037FF57FAFFFF783
:100DDC0011FAA0EB08006428F5D9E4E7052B2B6881
:100DEC0003D143F480232B60CCE723F480332B60B6
:100DFC002B6823F48023C8E7042E02D00C2E10D1CC
:100E0C007FB94E4B1A68910703D5E268012A7FF42B
:100E1C0051AF5A68216922F4F85242EA01225A6011
:100E2C0058E7E268494BB2B101221A60FFF7E2F9C8
:100E3C000746424D2B689A0707D56B68226923F445
:100E4C00F85343EA02236B6044E7FFF7D3F9C01B66
:100E5C000228EFD9A7E71A60FFF7CCF90746374D00
:100E6C002B689B077FF536AFFFF7C4F9C01B022830
:100E7C00F6D998E76B6823F4604303436B606B68A7
:100E8C00E26923F07F4343EA02636B60FFF7CEFE17
:100E9C0000283FF444AF0DE7A2692D4BE2B10122CB
:100EAC001A60FFF7A7F90746244D2B689A050DD554
:100EBC006B68226A23F4604313436B606B68E269CE
:100ECC0023F07F4343EA02636B603DE7FFF792F93F
:100EDC00C01B0228E9D966E71A60FFF78BF90746B1
:100EEC00164D2B689B057FF52FAFFFF783F9C01BC1
:100EFC000228F6D957E76269164B7AB101221A60BB
:100F0C00FFF778F907460D4D6B6B9A073FF520AF4D
:100F1C00FFF770F9C01B0228F6D944E71A60FFF7F7
:100F2C0069F90746054D6B6B9B077FF511AFFFF712
:100F3C0061F9C01B0228F6D935E700BF0038024022
:100F4C00C42D0008F80000200400002000004742D7
:100F5C002000474280064742604B5A6AD00029D491
:100F6C0001275A6A42F080525A625B6A03F080533E
:100F7C000193019B5A4D2B68D9051DD5A368574D7C
:100F8C00012B2AD16B6B43F480736B63FFF732F93F
:100F9C0041F288358146DFF84481D8F834309B051E
:100FAC0041D5002F3FF4D8AE4C4A536A23F08053FE
:100FBC005362D1E60027DDE72B6843F480732B6086
:100FCC00FFF718F980462B68DA05D7D4FFF712F92A
:100FDC00A0EB08006428F6D9E5E6B3B96B6B41F2D7
:100FEC00883923F480736B636B6B23F480636B63BE
:100FFC00FFF700F980466B6B9805D2D5FFF7FAF82E
:10100C00A0EB08004845F6D9CDE6052B6B6B03D158
:10101C0043F480636B63B5E723F480736B636B6B92
:10102C0023F48063B1E7FFF7E5F8A0EB0900A842D1
:10103C00B3D9B8E60C2E39D000232A4D02282B60E8
:10104C0026D1FFF7D7F80746244E3368990119D4F7
:10105C00A36AE16AB2680B4322F47D021343226B4C
:10106C001E4C1343B36001232B60FFF7C3F80546F6
:10107C0023689A013FF574AEFFF7BCF8401B0228B9
:10108C00F6D990E6FFF7B6F8C01B0228DDD98AE640
:10109C00FFF7B0F80546114C23689B017FF560AE55
:1010AC00FFF7A8F8401B0228F6D97CE601283FF48C
:1010BC007BAE0A4B9868A36A00F480329A427FF4A4
:1010CC00F9ADE26A00F4701393427FF4F3AD236B35
:1010DC0000F44000C01A18BF012065E60038024039
:1010EC000070004060004742104A936803F00C0106
:1010FC00082903D00C2903D004290ED10C487047C1
:10110C000C48C3F38341415CC3F381509368084B93
:10111C0001304B43B3FBF0F070475068C0F34230E2
:10112C00431C4FF400409840704700BF0038024009
:10113C000024F400DC2D00082DE9F0410D46044696
:10114C0010B90120BDE8F081574B1A6802F001027A
:10115C008A422AD32268960738D4D0073ED4524B01
:10116C001A6802F001029542C0F08D802268510786
:10117C0000F19280130707D54C4A2169936823F438
:10118C00605343EAC1039360FFF7AEFFBDE8F04143
:10119C00464B474A9B68C3F30313D35CD840454B7B
:1011AC001860454B1868FEF7E3BF012902BF1A68A7
:1011BC0042F004021A601A6822F001020A431A6013
:1011CC001B6803F001039942BBD1C3E73749A06800
:1011DC008B6823F0F00303438B60BEE76168334BED
:1011EC0002291A681DD112F4003FAAD09A682F4F19
:1011FC0022F003020A439A60FEF7FCFF636806467E
:10120C00022B41F2883819D1BB6803F00C03082B70
:10121C00A5D0FEF7EFFF801B4045F5D90320BDE8B4
:10122C00F081032902D112F0007FDEE7012902D1FF
:10123C0012F0020FD9E712F4007FD6E7032B0AD184
:10124C00BB6803F00C030C2B89D0FEF7D3FF801B7B
:10125C004045F5D9E2E7012B10D1BB6803F00C0334
:10126C00042B3FF47CAFFEF7C5FF801B4045F4D93F
:10127C00D4E7FEF7BFFF801B4045CFD8BB6813F007
:10128C000C0FF6D16BE71A6822F001021A601B688A
:10129C00DA073FF556AF69E70449E0688B6823F439
:1012AC00E06303438B6065E7003C0240003802407A
:1012BC00C42D0008F800002004000020044B054A4F
:1012CC009B68C3F30223D35C034A1068D840704771
:1012DC0000380240D42D0008F8000020044B054AC9
:1012EC009B68C3F3C223D35C034A1068D840704791
:1012FC0000380240D42D0008F80000200368DA689A
:10130C0022F49072DA605A6922F001025A612023A9
:10131C0080F83A307047000038B505460268C1685D
:10132C0013692C6923F440530B431361AB68D168E8
:10133C0023436C69C069234321F4164121F00C014D
:10134C0003430B43D3605369A96923F440730B43E4
:10135C00B0F5004F53611F4B21D19A424FF0190445
:10136C001AD1FFF7BBFF60436C6829686400B0FBBF
:10137C00F4F06424B0FBF4F504FB1503DB0032330A
:10138C00B3FBF4F303F007025B0002EB051203F46A
:10139C00F87313448B6038BDFFF790FFE3E79A4274
:1013AC004FF0190413D1FFF799FF60436C68642266
:1013BC00A400B0FBF4F0B0FBF2F402FB14031B012D
:1013CC003233B3FBF2F3296803EB0413E2E7FFF7C4
:1013DC0075FFEAE70038014010B5044640B390F8B9
:1013EC00393003F0FF021BB980F8382001F098FA6D
:1013FC002423226884F83930D368204623F4005320
:10140C00D360FFF789FF236800201A6922F4904209
:10141C001A615A6922F02A025A61DA6842F40052BF
:10142C00DA602023E06384F8393084F83A3010BD58
:10143C00012010BD90F83A30202B20D1E9B1E2B157
:10144C0090F83830012B1AD0C285828500232222D5
:10145C00C36380F83A2002688162D16880F8383022
:10146C0041F48071D1605169184641F0010151611C
:10147C00D16841F02001D1607047012070470220F3
:10148C007047704790F83A3010B5222B36D18368EC
:10149C000169B3F5805F0268836A23D15268E9B9A8
:1014AC00C2F3080223F8022B8362C48D013CA4B260
:1014BC00C4858CB90368DA6822F02002DA60DA6835
:1014CC0022F48072DA605A6922F001025A612023F8
:1014DC0080F83A3001F098F9002010BDD2B223F810
:1014EC00012BE1E721B9591C526881621A70DCE7C3
:1014FC005268591C816202F07F02F7E7022010BD8E
:10150C0070470000036870B51A6804461607D9685E
:10151C005D6907D196065AD58D0658D5BDE8704041
:10152C00FFF7B0BF15F0010502D111F4907F4ED03A
:10153C00D30705D5CE0542BFE36B43F00103E3634C
:10154C00500704D51DB1E36B43F00203E36393072B
:10155C0004D51DB1E36B43F00403E363160704D514
:10156C001DB1E36B43F00803E363E36B002B66D020
:10157C00950604D5880602D52046FFF783FF23681D
:10158C0020465D69E26B110702D415F040051AD0B4
:10159C00FFF7B4FE23685A69520610D55A69606B7E
:1015AC0022F040025A6150B1254B4363FEF7A4FE72
:1015BC00002844D0606BBDE87040436B1847204650
:1015CC00FFF79EFF70BDFFF79BFFE56370BD16062E
:1015DC0027D50D0625D594F83920212A2FD1A268BC
:1015EC00B2F5805F226A17D11188C1F308015960E6
:1015FC00216979B902322262E28C013A92B2E28418
:10160C00EAB9DA6822F08002DA60DA6842F0400265
:10161C00DA6070BD0132EEE7511C216212785A601B
:10162C00EAE750060BD54A0609D5DA68204622F0BF
:10163C004002DA60202384F83930FFF722FF70BDB6
:10164C005116000808B50023406AC385C384FFF710
:10165C0057FF08BDB0F840309BB243F43F43A0F8AD
:10166C00403000207047B0F8403023F47C535B04CA
:10167C005B0CA0F840300020704784B010B503AC70
:10168C0084E80E00BDE8104000220123A0F8403091
:10169C00A0F84020A0F84420A0F85020B0F840302A
:1016AC0004B09BB243F43F43A0F84030104670475F
:1016BC0070B50D78034630F82520C87822F4EC423A
:1016CC0022F070021204120C03284CD8DFE800F050
:1016DC000248044542F40072002048F28004224380
:1016EC0023F825200E78A54D33F82620344392B2EA
:1016FC002A40224323F826200C7B0A78002C7DD12B
:10170C004E78CC888EB3B3F8506003EB0212B6B2AD
:10171C00324424F00104A2F800440C7833F824205D
:10172C00560609D533F8242092B22A4042F40042DE
:10173C0042F0C00223F82420CA780978012A33F831
:10174C0021208F4C92B202EA040201D082F02002D6
:10175C0042F4004242F08002C0E042F4C062BBE7B7
:10176C0042F48062B8E70120B7E7B3F8505003EBBE
:10177C000212ADB22A4424F00104A2F808440A78FB
:10178C00B3F850500C6903EB0212ADB202F20C42EA
:10179C0044B9545B24F4F8446FEA44446FEA54446B
:1017AC00545307E03D2C24D86608E40748BF0136A3
:1017BC00B60256530C7833F8242052040DD533F866
:1017CC00242022F4E04222F070021204120C42F4A3
:1017DC00404242F0800223F82420097833F821207B
:1017EC0022F4804222F070021204120C82F4405255
:1017FC00AEE7644E640946EA8424D1E733F822400C
:10180C00A4B22C4044F4014444F0800423F8224058
:10181C00B3F8502094B20A7803EB021222440C89DC
:10182C0024F00104A2F80044B3F8502094B20A78D2
:10183C0003EB021222444C8924F00104A2F8084460
:10184C004A780C78002A4CD133F82420560409D558
:10185C0033F8242092B22A4042F4404242F08002F3
:10186C0023F824200C7833F8242052060DD533F8B5
:10187C00242022F4E04222F070021204120C42F4F2
:10188C00004242F0C00223F824200C7833F82420C4
:10189C0022F4E04222F070021204120C42F40042D4
:1018AC0042F0C00223F8242048F280040D7833F86B
:1018BC00252022F4804222F070021204120C82F4D1
:1018CC004052224323F82520097833F8212022F4B2
:1018DC00E04222F040021204120C224323F8212091
:1018EC0070BD33F82420560409D533F8242092B265
:1018FC002A4042F4404242F0800223F824200C7823
:10190C0033F8242052060DD533F8242022F4E0427B
:10191C0022F070021204120C42F4004242F0C00297
:10192C0023F824200C78164D33F8242022F4E042BE
:10193C0022F070021204120C42F4404242F0800277
:10194C0023F82420CA780C78012A33F8242092B288
:10195C0002EA050218BF82F0200242F4004242F073
:10196C00800223F82420097833F8212022F48042C5
:10197C0022F070021204120CEAE600BF8F8FFFFFF8
:10198C00BF8FFFFF0080FFFF10B50C7B4B780A78F0
:10199C00002C3DD113B330F822305C060DD530F855
:1019AC00223023F4E04323F070031B041B0C43F49C
:1019BC00004343F0C00320F822300A7830F822307C
:1019CC0023F4E04323F040031B041B0C43F40043BB
:1019DC0043F0800320F82230002010BD30F8223074
:1019EC005B040DD530F8223023F4E04323F0700370
:1019FC001B041B0C43F4404343F0800320F82230BB
:101A0C000A7830F8223023F4804323F07003DBE7AC
:101A1C00002B4ED130F822305C040DD530F822303A
:101A2C0023F4E04323F070031B041B0C43F44043EA
:101A3C0043F0800320F822300A7830F822305B061D
:101A4C000DD530F8223023F4E04323F070031B044F
:101A5C001B0C43F4004343F0C00320F822300A78F7
:101A6C0030F8223023F4E04323F070031B041B0CEA
:101A7C0043F4004343F0C00320F8223048F28002C4
:101A8C000C7830F8243023F4804323F070031B04CB
:101A9C001B0C134320F82430097830F8213023F440
:101AAC00E04323F040031B041B0C134320F82130AC
:101ABC0092E730F822305C040DD530F8223023F454
:101ACC00E04323F070031B041B0C43F4404343F02E
:101ADC00800320F822300A7830F822305B060DD5CE
:101AEC0030F8223023F4E04323F070031B041B0C6A
:101AFC0043F4004343F0C00320F822300A7830F856
:101B0C00223023F4E04323F070031B041B0C43F43A
:101B1C00404343F0800320F8223048F280020C78D6
:101B2C0030F8243023F4E04323F040031B041B0C57
:101B3C00134320F82430097830F8213023F4804303
:101B4C0023F07003AFE74B780A788BB130F8223072
:101B5C0023F4E04323F040031B041B0C83F010031D
:101B6C0043F4004343F0800320F8223000207047F8
:101B7C0030F8223023F4804323F070031B041B0C39
:101B8C0083F48053ECE70B7B43BB4B780A783BB375
:101B9C0030F822305B060DD530F8223023F4E043C8
:101BAC0023F070031B041B0C43F4004343F0C003ED
:101BBC0020F82230CB78012B10D00A7830F8223064
:101BCC0023F4E04323F040031B041B0C83F020039D
:101BDC0043F4004343F0800320F822300020704788
:101BEC0030F822305B040DD530F8223023F4E0437A
:101BFC0023F070031B041B0C43F4404343F080039D
:101C0C0020F822300A7830F8223023F4804323F075
:101C1C0070031B041B0C83F44053D9E711B98023C8
:101C2C00A0F84C300020704700207047B0F84400FA
:101C3C0080B270470020704730B50C46013300EB82
:101C4C00420223F0010302F580620B449C4200D156
:101C5C0030BD2588601A22F810500234F6E70000D7
:101C6C0070B50D46497804460129AA692B69287B71
:101C7C0063D19A429DBF0023AB611346D21A88BF31
:101C8C00AA619EB208BB3346EA8869692046FFF711
:101C9C00D3FFB4F850309AB22B7804EB03131344EF
:101CAC00A3F804642A7834F8223023F4E04323F0B8
:101CBC0040031B041B0C83F0300343F4004343F03C
:101CCC00800324F82230002070BD2A78204634F896
:101CDC002210120111F0400FB4F85010224489B2B6
:101CEC000A4415BFA2F80C34A2F804346A892A8974
:101CFC0033466969FFF7A0FF6B782A7873B934F81B
:101D0C00223023F4E04323F070031B041B0C43F438
:101D1C00004343F0C00324F82230C3E7012BC1D1A8
:101D2C0034F8223023F4E04323F070031B041B0C23
:101D3C0043F4404343F08003EDE79A4293BF002302
:101D4C00D21AAA61AB6198BF13462A7888B9B4F845
:101D5C005010120188B204F20C410144002B35D111
:101D6C008B5A23F4F8436FEA43436FEA53438B5285
:101D7C0034E079B9B4F85000120181B204F2044095
:101D8C000844B3B9815A21F4F8416FEA41416FEA32
:101D9C005141815269782A780029D8D001291DD166
:101DAC00B4F8501004EB021289B20A44A2F80C34B5
:101DBC0014E03D2B05D85908DE0748BF01318902D4
:101DCC00E7E70F4E590946EA8121E2E73D2B11D88E
:101DDC005808DB0748BF0130800288522A7834F853
:101DEC00223023F4804323F070031B041B0C83F478
:101DFC00405362E75809024B43EA8023B7E700BF20
:101E0C000080FFFF70B55D082E4600EB420202F524
:101E1C0080628C1C36B9DB0744BF32F8253001F8E0
:101E2C00153070BD601A02EB400030F8040C013E16
:101E3C0004F8020C000A04F8010C0234EAE7000072
:101E4C002223038000487047740000202223038063
:101E5C0000487047980000202223038000487047F8
:101E6C00D4000020D0F89032002018737047000086
:101E7C000A23038000487047C800002037B50025AE
:101E8C00ADF806500D78034615F060050A46D0F8FB
:101E9C0090421ED0202D52D14978023909294CD8B4
:101EAC00DFE801F0140A4B4B4B4B4B4B100593786E
:101EBC002360002003B030BD01222146184600F0FB
:101ECC00C6FBF6E753881B0A6360F2E70122211D6B
:101EDC00F4E749780B2930D8DFE801F0062F2F2FD3
:101EEC002F2F0E2F2F2F202893F87412032924D173
:101EFC0002220DF10601E1E75188090A222905D1D8
:101F0C00D2881149322A28BF3222D7E7212914D18D
:101F1C00D2880E49092A28BF0922CFE793F87412F8
:101F2C0003290AD1012204F10801C7E793F87412BE
:101F3C00032902D19378A360BBE71146184600F041
:101F4C005FFB0220B6E700BF08000020BC000020A9
:101F5C0038B504460025812100F0EEFDD4F890023E
:101F6C00E56218B100F050FEC4F89052002038BD64
:101F7C0010B5042303228121044600F0CDFD01237A
:101F8C001020E36200F03CFEC4F8900218B100236C
:101F9C000373184610BD022010BD10B5134690F8FF
:101FAC007422032A09D1D0F89042227B2AB901224B
:101FBC0022730A46812100F007FE002010BD08B5EF
:101FCC0080B1D0F88C3213B10023C0F88C3209B137
:101FDC00C0F888120123027080F8743200F05AFDA8
:101FEC00002008BD022008BD19B1C0F88C120020D9
:101FFC0070470220704708B500F080FD002008BD36
:10200C0008B5D0F88C320BB9022008BD1B68984774
:10201C000028F9D108BD08B5D0F88C325B68984718
:10202C00002008BD38B500F520750446284600F0A0
:10203C00D3FA012394F88012C4F86C32B4F88632C7
:10204C00C4F8703201F01F03012B0ED007D3022B02
:10205C0010D001F08001204600F07CFD03E0294601
:10206C00204600F0F1F8002038BD2946204600F04B
:10207C0005FAF8E72946204600F025FAF3E770B593
:10208C000546164649BBD0F86C32032B1ED1D0F84E
:10209C004C31D0F8502193420BD99B1A9A42C0F87C
:1020AC004C318CBF9AB292B2314600F0E5FA002066
:1020BC0070BDD0F88C321B6923B190F87422032ABE
:1020CC0000D19847284600F0DFFAF0E7052BEED157
:1020DC00C5F86C1200F03EFDE9E7D0F88C329B6934
:1020EC002BB190F87422032A01D19847DFE7022024
:1020FC0070BD70B5134604460E46002947D1D0F882
:10210C006C22022A3CD1056A426A954213D9AA1A5A
:10211C000262194692B200F0A7FA33461A461946E3
:10212C00204600F05FFD94F878320020012B3AD164
:10213C0084F8780270BDC369B3FBF2F502FB153568
:10214C0065B99A420AD8D0F87022934206D22A4630
:10215C0000F08AFAC4F870522B46DFE7D4F88C32C0
:10216C00DB682BB194F87422032A01D120469847DE
:10217C008021204600F0EEFC204600F090FAD2E7D9
:10218C0032F00403CFD1802100F0E4FCCBE7D0F88F
:10219C008C325B6933B190F87422032A02D19847D0
:1021AC00002070BD022070BD002270B504460125D0
:1021BC0040261146402300F0AFFC33468021C4F882
:1021CC004451C4F850610022204600F0A5FC0021C7
:1021DC00D4F89032A561666284F87452C4F86C121B
:1021EC006160C4F87C1223B1D4F88C3220465B6851
:1021FC009847002070BD01740020704790F874322D
:10220C0080F87532042380F874320020704790F8FF
:10221C00753280F874320020704708B590F874223B
:10222C00032A04D1D0F88C32DB6903B19847002023
:10223C0008BD10B50446802100F08CFC2046BDE89A
:10224C001040002100F086BC37B50B78044603F033
:10225C006003202B0D4614D0402B12D0002B40F0E5
:10226C008D804B78092B00F28880DFE813F0DF00BB
:10227C00F9008600F20086007A0013008600CA007E
:10228C009800D4F88C3229469B6820469847002049
:10229C0003B030BD4B881A0A013A062A6DD8DFE824
:1022AC0002F004202D6C6C4D5600D0F888321B685F
:1022BC000DF10601207C9847BDF8062052B1EB8841
:1022CC0043B19A4228BF1A4601462046ADF8062073
:1022DC0000F0BDF9EB88002BD9D1204600F0D4F9E1
:1022EC00D5E7027CD0F88C3232B99B6A0DF106002E
:1022FC00984702234370DFE7DB6AF7E7DBB2052B75
:10230C003BD8DFE803F003070B0F1317D0F8883224
:10231C005B68CDE7D0F888329B68C9E7D0F8883283
:10232C00DB68C5E7D0F888321B69C1E7D0F8883282
:10233C005B69BDE7D0F888329B69B9E7037CE3B9E8
:10234C00D0F88C320DF106005B6B9847B4E7037C38
:10235C009BB9D0F88C320DF106001B6B9847072304
:10236C00C8E78B884BB9CB883BB94D887F2D04D8F7
:10237C0090F87432E9B2032B03D12046FFF759FFD2
:10238C0085E780F8761200F011FC204600F07CF90D
:10239C001DB1022384F8743279E70123FAE78978B6
:1023AC00354D01292970E8D890F87432022B08D0E9
:1023BC00032B14D0FFF73DFF29782046FFF72BFEA7
:1023CC0065E7002989D001210323416080F874322C
:1023DC002046FFF715FE02287FF47FAFCDE731B919
:1023EC000223416080F87432FFF715FE75E74168EF
:1023FC0001293FF472AFC9B2FFF70DFE2978616075
:10240C00E6E7CA88012AB8D190F87432002BB4D010
:10241C00022B03D9032BB0D1011D03E0014600238D
:10242C0041F8083F204600F012F930E790F874327A
:10243C00013B022BA1D8CB88022B9ED10123C36078
:10244C00D0F87C320BB10323C360022204F10C01DF
:10245C00E8E74B88012B7FF41AAFC4F87C323CE7D9
:10246C0090F87432013B022B87D84B88012B7FF4F8
:10247C000EAF0023F1E700BF6801002038B50B78E0
:10248C00044603F06003202B0D4602D0402B00D0F5
:10249C00B3B994F87432013B022B10D82B79012B71
:1024AC000DD8D4F88C3229469B6820469847EB8887
:1024BC001BB910B9204600F0E7F8002038BD2046C3
:1024CC00FFF7B7FEF9E738B50A78044602F0600268
:1024DC00202A0B4613D0402A11D06AB95D788A881D
:1024EC00012DD1B21FD035D3032D05D190F8742214
:1024FC00022A26D0032A0AD0FFF79BFE05E0D4F867
:10250C008C221946926820469047002038BD5A8884
:10251C002AB94A0603D0DB880BB900F01BFB204616
:10252C0000F0B2F8F1E790F87422022A09D0032ADD
:10253C00E2D15B88002BE8D14D06F0D000F018FBFF
:10254C00EDE74B0616D000F005FB8021204600F08D
:10255C0001FBDAE790F87432022B0DD0032BCBD1B0
:10256C00142312F0800F01F00F0203FB020214D0AF
:10257C009269EAB92046BFE74906FBD113064FF032
:10258C0000034FF002024CBF00F1140100F5A071E2
:10259C000B60204600F05BF8B7E7D2F84421002A24
:1025AC00E8D001F07F0503FB050505F5A07504E0F7
:1025BC0001F07F0505FB0335054411F07F0303D1C2
:1025CC002B6002222946E4E7204600F0DFFA08B12E
:1025DC000123F5E72860F4E70B7803704B78437020
:1025EC00CA788B7803EB022343804A790B7903EB8F
:1025FC0002238380CA798B7903EB0223C380704753
:10260C0010B50446802100F0A5FA2046BDE8104024
:10261C00002100F09FBA30B588B105462B1A15F889
:10262C00014BDBB2002CF9D101335B0013800B7032
:10263C0003234B700223013810F8015F05B930BD3C
:10264C005A1CCD54D2B20233DBB28C54F4E713468D
:10265C00022210B5C0F86C22C3610A460362002145
:10266C0000F0B2FA002010BD08B513460A4600214E
:10267C0000F0AAFA002008BD08B513460A4600214E
:10268C0000F0B0FA002008BD08B50423C0F86C3285
:10269C0000231A46194600F097FA002008BD08B529
:1026AC000523C0F86C3200231A46194600F09AFA3A
:1026BC00002008BD10B588B01422002103A800F03A
:1026CC0067FB174B174CDA69204642F01002DA61AF
:1026DC00DA69042102F010020092009ADA6942F0E1
:1026EC002002DA61DA6902F020020192019ADA69B9
:1026FC0042F00102DA61DB69002203F0010302936C
:10270C00029BFDF7EDFE04230393012304930023A6
:10271C0003A9204605930693FDF714FE08B010BDDF
:10272C00003802400010024010B592B03422002153
:10273C0005A800F02DFB00211422684600F028FBB0
:10274C00124A0124136805A823F4C05343F4006310
:10275C00136002230E934FF480330F934FF4002336
:10276C0010934FF40003059411930694FEF79EFA10
:10277C000F2003238DE809000023214668460293AD
:10278C0003930493FEF7D8FC12B010BD0070004008
:10279C0007B5FDF713FDFFF7C7FFFFF78BFF00F041
:1027AC00A3F800F0F9F8012213491448FEF742FE91
:1027BC0000238DF801308DF802308DF804308DF83F
:1027CC0005308DF8063001230D4C0E4D8DF8003080
:1027DC002378002BFCD1032269462846FFF7DDFB4A
:1027EC001420FDF70DFD032201A92846FFF7D5FBA8
:1027FC0001232370ECE700BF690100208401002055
:10280C00F6000020C4010020054B05491B78054843
:10281C00552B02BF0022044B1A700122FEF70ABE90
:10282C006901002084010020F600002070470000A0
:10283C000F4B84B05A6A42F000425A625A6A02F054
:10284C0000420192019A1A6A42F001021A621A6A53
:10285C0002F001020292029A5A6A42F080525A62C3
:10286C005B6A03F080530393039B04B0704700BF73
:10287C00003802407047FEE7FEE7FEE7FEE77047D0
:10288C0070477047FDF7AABC0148FDF73DBF00BF7C
:10289C00600400200148FEF735BE00BF8401002013
:1028AC000E4B1A6842F480721A6099680C4A0A40FE
:1028BC009A601A6822F0885222F001121A601A6883
:1028CC0022F480221A609A6822F47D029A60002217
:1028DC00DA604FF00062034B9A6070470038024098
:1028EC000CC0FF8800ED00E008B540F2836E0A488A
:1028FC000A4B042280E80840002342618360C360D5
:10290C0003618361C361FEF767FD18B1BDE8084040
:10291C00FFF78CBF08BD00BF8401002000440040BD
:10292C0010B5044688B01422002103A800F030FA38
:10293C002268174B9A4229D103F5FA335A6A03A934
:10294C0042F400325A625A6A124802F4003201927E
:10295C00019ADA6942F00102DA61DB6903F00103E2
:10296C000293029B0C2303930223049301230593EC
:10297C000323069307230793FDF7E4FC002226208C
:10298C001146FDF761FC2620FDF792FC08B010BD46
:10299C00004400400000024008B500220B490C48DE
:1029AC00FFF70DFB08B1FFF741FF0A490848FFF795
:1029BC001BFB08B1FFF73AFF0548FFF71CFB18B1EA
:1029CC00BDE80840FFF732BF08BD00BFFC00002087
:1029DC00C40100203C00002007B50D4B02689A4250
:1029EC0012D103F5EE335A6A142042F400025A62F3
:1029FC0000225B6A114603F400030193019BFDF76F
:102A0C0023FC1420FDF754FC03B05DF804FB00BF5D
:102A1C00005C004000F50C71D0F86802FFF702BBB7
:102A2C0000EB4113D3F83C21D0F86802FFF727BB29
:102A3C0000EB4113DA6BD0F86802FFF75ABBD0F801
:102A4C006802FFF7EABB836810B5022B044601D07D
:102A5C00FFF7ECFED4F868020121FFF7CCFBD4F8A9
:102A6C006802BDE81040FFF79FBB000010B504469C
:102A7C00D0F86802FFF7C2FBA36923B1024A1369BD
:102A8C0043F00603136110BD00ED00E0D0F86802BE
:102A9C00FFF7BDBB10B54FF0080E0446154B16489A
:102AAC0080E808400223836003610023C4F8980285
:102ABC00C0F8684283610362FDF717FD08B1FFF7A8
:102ACC00B5FE002218231146D4F89802FEF794F8AC
:102ADC00582300228021D4F89802FEF78DF84FF489
:102AEC00807300228121D4F89802FEF785F800202B
:102AFC0010BD00BF005C00406004002008B5D0F899
:102B0C009802FDF74BFD03289ABF024B185C02207C
:102B1C0008BD00BFE52D000810B51C46D0F8980282
:102B2C0013462246FDF765FD03289ABF014B185C3E
:102B3C00022010BDE52D000808B5D0F89802FDF76D
:102B4C008BFD03289ABF024B185C022008BD00BF06
:102B5C00E52D000808B5D0F89802FDF7E7FF03282B
:102B6C009ABF024B185C022008BD00BFE52D00087F
:102B7C0008B5D0F89802FEF70DF803289ABF024B5F
:102B8C00185C022008BD00BFE52D00080A06D0F82D
:102B9C00983245BF01F07F0103EB411303EB411366
:102BAC0093F82A0058BF93F82A01704708B5D0F85B
:102BBC009802FDF70AFD03289ABF024B185C02200D
:102BCC0008BD00BFE52D000808B5D0F89802FDF748
:102BDC0084FD03289ABF024B185C022008BD00BF7D
:102BEC00E52D000808B5D0F89802FDF75EFD032826
:102BFC009ABF024B185C022008BD00BFE52D0008EF
:102C0C00004870476C0100207047000012230148F7
:102C1C000B80704718010020042301480B8070477B
:102C2C002C010020002330B51D46DCB2A24200D896
:102C3C0030BD040F092C94BF3034373401F81340E5
:102C4C0001EB4304000165700133EEE71A2310B564
:102C5C000B80094B186808331B68C0180AD0074B47
:102C6C0008221C680649FFF7DDFF042205492046AF
:102C7C00FFF7D8FF044810BD5000F81F5400F81F90
:102C8C0032010020420100203001002010B5044C1C
:102C9C000A4604482146FFF7BEFC204610BD00BF83
:102CAC00CC060020022E000810B5044C0A4604483D
:102CBC002146FFF7B0FC204610BD00BFCC0600201B
:102CCC00172E000810B5044C0A4604482146FFF79D
:102CDC00A2FC204610BD00BFCC060020E92D000848
:102CEC0010B5044C0A4604482146FFF794FC2046D4
:102CFC0010BD00BFCC060020F42D0008002103E01D
:102D0C000B4B5B58435004310A480B4B42189A4208
:102D1C00F6D30A4A02E0002342F8043B084B9A42DD
:102D2C00F9D3FFF7BDFD00F00FF8FFF731FD704749
:102D3C00382E0008000000204C0100204C0100201F
:102D4C00CC080020FEE7000070B500250C4E0D4CA1
:102D5C00A41BA410A54209D100F022F800250A4EAC
:102D6C000A4CA41BA410A54205D170BD56F8253001
:102D7C0098470135EEE756F8253098470135F2E7CC
:102D8C00302E0008302E0008302E0008342E00089B
:102D9C0003460244934200D1704703F8011BF9E744
:102DAC00F8B500BFF8BC08BC9E467047F8B500BF2C
:082DBC00F8BC08BC9E467047FC
:102DC40000000000000000000102030406070809D7
:102DD4000000000001020304030406080C1018207C
:102DE400300002010248494420436F6E666967005F
:102DF40048494420496E7465726661636500506F8A
:102E04006C69746563686E696B61204764616E7395
:102E14006B61004D617572796379204D616E736BDE
:0C2E2400692031363531373900000000DC
:042E30006101000834
:042E34003D01000854
:102E3800010000001000000005010902A1010901BC
:102E4800A10005091901290315002501950375013C
:102E58008102950175058103050109300931158144
:102E6800257F750895028106C0C000007D1F0008F7
:102E78005D1F0008891E0008000000000000000017
:102E8800711E0008000000000000000000000000A3
:102E980000000000591E00084D1E0008651E0008AD
:102EA8007D1E000809022200010100E03209040029
:102EB800000103010200092111010001223200076B
:102EC80005810304000A000009022200010100E054
:102ED8003209040000010301020009211101000167
:102EE80022320007058103040007000009211101AF
:102EF80000012232000000000A0600020000004023
:102F08000100000009022200010100E0320904006A
:102F1800000103010200092111010001223200070A
:102F280005810304000A010068FF1F00192C00082E
:102F3800252C0008992C0008B52C0008592C0008ED
:102F4800D12C0008ED2C00081201000200000040FE
:102F580083042B5700020102030100000403090443
:102F68001A0300000000000000000000000000003C
:0C2F78000000000000000000000000004D
:0400000508002D09B9
:00000001FF
